{
  "address": "0x5FbDB2315678afecb367f032d93F642f64180aa3",
  "abi": [
    {
      "inputs": [],
      "stateMutability": "nonpayable",
      "type": "constructor"
    },
    {
      "inputs": [
        {
          "internalType": "address",
          "name": "owner",
          "type": "address"
        }
      ],
      "name": "OwnableInvalidOwner",
      "type": "error"
    },
    {
      "inputs": [
        {
          "internalType": "address",
          "name": "account",
          "type": "address"
        }
      ],
      "name": "OwnableUnauthorizedAccount",
      "type": "error"
    },
    {
      "inputs": [],
      "name": "ReentrancyGuardReentrantCall",
      "type": "error"
    },
    {
      "anonymous": false,
      "inputs": [
        {
          "indexed": true,
          "internalType": "uint256",
          "name": "id",
          "type": "uint256"
        }
      ],
      "name": "Cancelled",
      "type": "event"
    },
    {
      "anonymous": false,
      "inputs": [
        {
          "indexed": true,
          "internalType": "uint256",
          "name": "id",
          "type": "uint256"
        },
        {
          "indexed": true,
          "internalType": "address",
          "name": "seller",
          "type": "address"
        },
        {
          "indexed": true,
          "internalType": "address",
          "name": "nft",
          "type": "address"
        },
        {
          "indexed": false,
          "internalType": "uint256",
          "name": "tokenId",
          "type": "uint256"
        },
        {
          "indexed": false,
          "internalType": "uint256",
          "name": "price",
          "type": "uint256"
        }
      ],
      "name": "Listed",
      "type": "event"
    },
    {
      "anonymous": false,
      "inputs": [
        {
          "indexed": true,
          "internalType": "address",
          "name": "previousOwner",
          "type": "address"
        },
        {
          "indexed": true,
          "internalType": "address",
          "name": "newOwner",
          "type": "address"
        }
      ],
      "name": "OwnershipTransferred",
      "type": "event"
    },
    {
      "anonymous": false,
      "inputs": [
        {
          "indexed": true,
          "internalType": "uint256",
          "name": "id",
          "type": "uint256"
        },
        {
          "indexed": true,
          "internalType": "address",
          "name": "buyer",
          "type": "address"
        }
      ],
      "name": "Purchased",
      "type": "event"
    },
    {
      "inputs": [
        {
          "internalType": "uint256",
          "name": "id",
          "type": "uint256"
        }
      ],
      "name": "buy",
      "outputs": [],
      "stateMutability": "payable",
      "type": "function"
    },
    {
      "inputs": [
        {
          "internalType": "uint256",
          "name": "id",
          "type": "uint256"
        }
      ],
      "name": "cancel",
      "outputs": [],
      "stateMutability": "nonpayable",
      "type": "function"
    },
    {
      "inputs": [
        {
          "internalType": "uint256",
          "name": "id",
          "type": "uint256"
        }
      ],
      "name": "getListing",
      "outputs": [
        {
          "components": [
            {
              "internalType": "address",
              "name": "seller",
              "type": "address"
            },
            {
              "internalType": "address",
              "name": "nft",
              "type": "address"
            },
            {
              "internalType": "uint256",
              "name": "tokenId",
              "type": "uint256"
            },
            {
              "internalType": "uint256",
              "name": "price",
              "type": "uint256"
            },
            {
              "internalType": "bool",
              "name": "active",
              "type": "bool"
            }
          ],
          "internalType": "struct NFTMarketplace.Listing",
          "name": "",
          "type": "tuple"
        }
      ],
      "stateMutability": "view",
      "type": "function"
    },
    {
      "inputs": [
        {
          "internalType": "address",
          "name": "nft",
          "type": "address"
        },
        {
          "internalType": "uint256",
          "name": "tokenId",
          "type": "uint256"
        },
        {
          "internalType": "uint256",
          "name": "price",
          "type": "uint256"
        }
      ],
      "name": "list",
      "outputs": [],
      "stateMutability": "nonpayable",
      "type": "function"
    },
    {
      "inputs": [
        {
          "internalType": "uint256",
          "name": "",
          "type": "uint256"
        }
      ],
      "name": "listings",
      "outputs": [
        {
          "internalType": "address",
          "name": "seller",
          "type": "address"
        },
        {
          "internalType": "address",
          "name": "nft",
          "type": "address"
        },
        {
          "internalType": "uint256",
          "name": "tokenId",
          "type": "uint256"
        },
        {
          "internalType": "uint256",
          "name": "price",
          "type": "uint256"
        },
        {
          "internalType": "bool",
          "name": "active",
          "type": "bool"
        }
      ],
      "stateMutability": "view",
      "type": "function"
    },
    {
      "inputs": [],
      "name": "nextListingId",
      "outputs": [
        {
          "internalType": "uint256",
          "name": "",
          "type": "uint256"
        }
      ],
      "stateMutability": "view",
      "type": "function"
    },
    {
      "inputs": [],
      "name": "owner",
      "outputs": [
        {
          "internalType": "address",
          "name": "",
          "type": "address"
        }
      ],
      "stateMutability": "view",
      "type": "function"
    },
    {
      "inputs": [],
      "name": "renounceOwnership",
      "outputs": [],
      "stateMutability": "nonpayable",
      "type": "function"
    },
    {
      "inputs": [
        {
          "internalType": "address",
          "name": "nft",
          "type": "address"
        },
        {
          "internalType": "uint256",
          "name": "tokenId",
          "type": "uint256"
        },
        {
          "internalType": "address",
          "name": "to",
          "type": "address"
        }
      ],
      "name": "rescueNFT",
      "outputs": [],
      "stateMutability": "nonpayable",
      "type": "function"
    },
    {
      "inputs": [
        {
          "internalType": "address",
          "name": "newOwner",
          "type": "address"
        }
      ],
      "name": "transferOwnership",
      "outputs": [],
      "stateMutability": "nonpayable",
      "type": "function"
    }
  ],
  "transactionHash": "0xd0fe3c364b9972f00395f1a5a324e52da3fd0f6294d0c06e29c0a4d49f1313fe",
  "args": [],
  "numDeployments": 1,
  "solcInputHash": "2544cd8ac494cef9d41e3d12fca7a17d",
  "bytecode": "0x608060405234801561001057600080fd5b506001600055338061003c57604051631e4fbdf760e01b81526000600482015260240160405180910390fd5b6100458161004b565b5061009d565b600180546001600160a01b038381166001600160a01b0319831681179093556040519116919082907f8be0079c531659141344cd1fd0a4f28419497f9722a3daafe3b4186f6b6457e090600090a35050565b610aef806100ac6000396000f3fe6080604052600436106100915760003560e01c8063d96a094a11610059578063d96a094a14610214578063dda342bb14610227578063de74e57b14610247578063df651d71146102d6578063f2fde38b146102f657600080fd5b8063107a274a1461009657806340e58ee514610191578063715018a6146101b35780638da5cb5b146101c8578063aaccf1ec146101f0575b600080fd5b3480156100a257600080fd5b5061013b6100b13660046109a8565b6040805160a08101825260008082526020820181905291810182905260608101829052608081019190915250600090815260036020818152604092839020835160a08101855281546001600160a01b0390811682526001830154169281019290925260028101549382019390935290820154606082015260049091015460ff161515608082015290565b604051610188919081516001600160a01b03908116825260208084015190911690820152604080830151908201526060808301519082015260809182015115159181019190915260a00190565b60405180910390f35b34801561019d57600080fd5b506101b16101ac3660046109a8565b610316565b005b3480156101bf57600080fd5b506101b1610472565b3480156101d457600080fd5b506001546040516001600160a01b039091168152602001610188565b3480156101fc57600080fd5b5061020660025481565b604051908152602001610188565b6101b16102223660046109a8565b610486565b34801561023357600080fd5b506101b16102423660046109dd565b610667565b34801561025357600080fd5b506102a16102623660046109a8565b6003602081905260009182526040909120805460018201546002830154938301546004909301546001600160a01b039283169492909116929060ff1685565b604080516001600160a01b0396871681529590941660208601529284019190915260608301521515608082015260a001610188565b3480156102e257600080fd5b506101b16102f1366004610a10565b610855565b34801561030257600080fd5b506101b1610311366004610a4c565b6108c4565b61031e6108ff565b6000818152600360205260409020600481015460ff166103785760405162461bcd60e51b815260206004820152601060248201526f4c697374696e6720696e61637469766560801b60448201526064015b60405180910390fd5b80546001600160a01b031633146103be5760405162461bcd60e51b815260206004820152600a6024820152692737ba1039b2b63632b960b11b604482015260640161036f565b6004808201805460ff191690556001820154825460028401546040516323b872dd60e01b81526001600160a01b03938416946323b872dd94610407943094911692909101610a6e565b600060405180830381600087803b15801561042157600080fd5b505af1158015610435573d6000803e3d6000fd5b50506040518492507fc41d93b8bfbf9fd7cf5bfe271fd649ab6a6fec0ea101c23b82a2a28eca2533a99150600090a25061046f6001600055565b50565b61047a610929565b6104846000610956565b565b61048e6108ff565b6000818152600360205260409020600481015460ff166104e35760405162461bcd60e51b815260206004820152601060248201526f4c697374696e6720696e61637469766560801b604482015260640161036f565b806003015434146105245760405162461bcd60e51b815260206004820152600b60248201526a57726f6e6720707269636560a81b604482015260640161036f565b60048101805460ff1916905580546040516000916001600160a01b03169034908381818185875af1925050503d806000811461057c576040519150601f19603f3d011682016040523d82523d6000602084013e610581565b606091505b50509050806105c35760405162461bcd60e51b815260206004820152600e60248201526d14185e5b595b9d0819985a5b195960921b604482015260640161036f565b600182015460028301546040516323b872dd60e01b81526001600160a01b03909216916323b872dd916105fc9130913391600401610a6e565b600060405180830381600087803b15801561061657600080fd5b505af115801561062a573d6000803e3d6000fd5b50506040513392508591507fb47c52a971a941c629c2f7690d2a3bd407390d3c8eabc35473c70883a3d5da1690600090a3505061046f6001600055565b61066f6108ff565b600081116106b35760405162461bcd60e51b815260206004820152601160248201527005072696365206d757374206265203e203607c1b604482015260640161036f565b6001600160a01b0383166106f75760405162461bcd60e51b815260206004820152600b60248201526a125b9d985b1a590813919560aa1b604482015260640161036f565b6040516323b872dd60e01b81526001600160a01b038416906323b872dd9061072790339030908790600401610a6e565b600060405180830381600087803b15801561074157600080fd5b505af1158015610755573d6000803e3d6000fd5b50506040805160a081018252338082526001600160a01b0388811660208085018281528587018b8152606087018b81526001608089018181526002805460009081526003808952908d90209b518c546001600160a01b0319908116918c16919091178d559651938c01805490971693909916929092179094559151888301555194870194909455516004909501805460ff19169515159590951790945590548451898152938401889052909550909350917f723f73331eaee88eec7fc68ef60ab6ed15e4b90d0472b55eb92fa43910bab6dd910160405180910390a46002805490600061084183610a92565b91905055506108506001600055565b505050565b61085d610929565b6040516323b872dd60e01b81526001600160a01b038416906323b872dd9061088d90309085908790600401610a6e565b600060405180830381600087803b1580156108a757600080fd5b505af11580156108bb573d6000803e3d6000fd5b50505050505050565b6108cc610929565b6001600160a01b0381166108f657604051631e4fbdf760e01b81526000600482015260240161036f565b61046f81610956565b60026000540361092257604051633ee5aeb560e01b815260040160405180910390fd5b6002600055565b6001546001600160a01b031633146104845760405163118cdaa760e01b815233600482015260240161036f565b600180546001600160a01b038381166001600160a01b0319831681179093556040519116919082907f8be0079c531659141344cd1fd0a4f28419497f9722a3daafe3b4186f6b6457e090600090a35050565b6000602082840312156109ba57600080fd5b5035919050565b80356001600160a01b03811681146109d857600080fd5b919050565b6000806000606084860312156109f257600080fd5b6109fb846109c1565b95602085013595506040909401359392505050565b600080600060608486031215610a2557600080fd5b610a2e846109c1565b925060208401359150610a43604085016109c1565b90509250925092565b600060208284031215610a5e57600080fd5b610a67826109c1565b9392505050565b6001600160a01b039384168152919092166020820152604081019190915260600190565b600060018201610ab257634e487b7160e01b600052601160045260246000fd5b506001019056fea264697066735822122057eb5f2d0d1e3d5f8135acf06e71a670774ed4807b99b9ba0b9d0e0728ddac3964736f6c63430008140033",
  "devdoc": {
    "errors": {
      "OwnableInvalidOwner(address)": [
        {
          "details": "The owner is not a valid owner account. (eg. `address(0)`)"
        }
      ],
      "OwnableUnauthorizedAccount(address)": [
        {
          "details": "The caller account is not authorized to perform an operation."
        }
      ],
      "ReentrancyGuardReentrantCall()": [
        {
          "details": "Unauthorized reentrant call."
        }
      ]
    },
    "kind": "dev",
    "methods": {
      "list(address,uint256,uint256)": {
        "params": {
          "nft": "адрес контракта ERC721",
          "price": "цена в wei",
          "tokenId": "id токена"
        }
      },
      "owner()": {
        "details": "Returns the address of the current owner."
      },
      "renounceOwnership()": {
        "details": "Leaves the contract without owner. It will not be possible to call `onlyOwner` functions. Can only be called by the current owner. NOTE: Renouncing ownership will leave the contract without an owner, thereby disabling any functionality that is only available to the owner."
      },
      "transferOwnership(address)": {
        "details": "Transfers ownership of the contract to a new account (`newOwner`). Can only be called by the current owner."
      }
    },
    "version": 1
  },
  "userdoc": {
    "kind": "user",
    "methods": {
      "buy(uint256)": {
        "notice": "Купить NFT из листинга."
      },
      "cancel(uint256)": {
        "notice": "Отменить листинг и вернуть NFT продавцу."
      },
      "list(address,uint256,uint256)": {
        "notice": "Выставить NFT на продажу. NFT уходит в эскроу (этот контракт)."
      },
      "rescueNFT(address,uint256,address)": {
        "notice": "Аварийное изъятие NFT владельцем контракта."
      }
    },
    "version": 1
  },
  "storageLayout": {
    "storage": [
      {
        "astId": 1655,
        "contract": "contracts/NFTMarketplace.sol:NFTMarketplace",
        "label": "_status",
        "offset": 0,
        "slot": "0",
        "type": "t_uint256"
      },
      {
        "astId": 8,
        "contract": "contracts/NFTMarketplace.sol:NFTMarketplace",
        "label": "_owner",
        "offset": 0,
        "slot": "1",
        "type": "t_address"
      },
      {
        "astId": 3185,
        "contract": "contracts/NFTMarketplace.sol:NFTMarketplace",
        "label": "nextListingId",
        "offset": 0,
        "slot": "2",
        "type": "t_uint256"
      },
      {
        "astId": 3190,
        "contract": "contracts/NFTMarketplace.sol:NFTMarketplace",
        "label": "listings",
        "offset": 0,
        "slot": "3",
        "type": "t_mapping(t_uint256,t_struct(Listing)3183_storage)"
      }
    ],
    "types": {
      "t_address": {
        "encoding": "inplace",
        "label": "address",
        "numberOfBytes": "20"
      },
      "t_bool": {
        "encoding": "inplace",
        "label": "bool",
        "numberOfBytes": "1"
      },
      "t_mapping(t_uint256,t_struct(Listing)3183_storage)": {
        "encoding": "mapping",
        "key": "t_uint256",
        "label": "mapping(uint256 => struct NFTMarketplace.Listing)",
        "numberOfBytes": "32",
        "value": "t_struct(Listing)3183_storage"
      },
      "t_struct(Listing)3183_storage": {
        "encoding": "inplace",
        "label": "struct NFTMarketplace.Listing",
        "members": [
          {
            "astId": 3174,
            "contract": "contracts/NFTMarketplace.sol:NFTMarketplace",
            "label": "seller",
            "offset": 0,
            "slot": "0",
            "type": "t_address"
          },
          {
            "astId": 3176,
            "contract": "contracts/NFTMarketplace.sol:NFTMarketplace",
            "label": "nft",
            "offset": 0,
            "slot": "1",
            "type": "t_address"
          },
          {
            "astId": 3178,
            "contract": "contracts/NFTMarketplace.sol:NFTMarketplace",
            "label": "tokenId",
            "offset": 0,
            "slot": "2",
            "type": "t_uint256"
          },
          {
            "astId": 3180,
            "contract": "contracts/NFTMarketplace.sol:NFTMarketplace",
            "label": "price",
            "offset": 0,
            "slot": "3",
            "type": "t_uint256"
          },
          {
            "astId": 3182,
            "contract": "contracts/NFTMarketplace.sol:NFTMarketplace",
            "label": "active",
            "offset": 0,
            "slot": "4",
            "type": "t_bool"
          }
        ],
        "numberOfBytes": "160"
      },
      "t_uint256": {
        "encoding": "inplace",
        "label": "uint256",
        "numberOfBytes": "32"
      }
    }
  }
}